:040000008031122811
:100008007E14803120007F082100E60082314122E1
:10001800210066082000FF007E10090080311428A6
:100028002100E701E801E901EA01EB01EC01A03058
:100038008400013085004F3088314B2080313E30BC
:10004800840002308500123088314B208031A03086
:10005800840002308500403088314B2080312030C8
:10006800840003308500403088314B2080310830CF
:1000780084008930850020308600023087001E30D9
:10008800883145207E1020008A31C12A2000520381
:10009800031D622850081F39003A031D62282100F9
:1000A800E917033020005106031D60280130E800DD
:1000B80068082300C70062282300C70120005208EF
:1000C800031D080050081F39023A031D0800540890
:1000D8000F39003A0319080054080F39E8000330B3
:1000E800680203180800203023004C06031D08008E
:1000F8002100E9172000D41B8F2854080F39B83E77
:100108008600013087000108E8006808ED005408FF
:100118000F39B23E9C2854080F39B53E860001308D
:1001280087000108E8006808ED0054080F39AF3E61
:100138008600013087000108E8006808EC006C18A8
:10014800AA28FB30E8006808ED05AB286D15D41B1C
:10015800B3286D08E80054080F39B83EB8286D0870
:10016800E80054080F39B53E86000130870068085A
:10017800810003305106031DDC286D0886008701C5
:10018800811FD328D41BCC2854080F39B23ECF285E
:1001980054080F39AF3E86000130870081146D087E
:1001A8008600870101156D08860087018117080000
:1001B8000430E8006808ED066D0886008701811F95
:1001C80002297F30E8006D088600870168088105EC
:1001D8006D088600870101170030E3000530E20052
:1001E8006D08E400FF39031D0030E5000130E6002A
:1001F8000030E7008A3180228031072920006D080D
:1002080086008701011704302000E8006808ED0621
:10021800EC1813296D0886008701811F3929D41B22
:10022800192954080F39B23E1C2954080F39AF3E1A
:1002380086000130870081103B30E8006D08860099
:100248008701680881050030E3000530E2006D0889
:10025800E400FF39031D0030E5000130E6000030FE
:10026800E7008A318022803141293B302000E800B4
:100278006D088600870168088105200054080F3939
:10028800983EE800E9010E30E93D6808EA0069088F
:10029800EB00FE30E8006A0886006B0887006808F3
:1002A8008105080023005408031D3E2A403022001F
:1002B800EE006E08E800A0308C31802481312200E5
:1002C800EF006F082400D000D301CB292400530885
:1002D800A03E8600023087000D30010603197D29F3
:1002E8005308A03E8600023087000A300106031D2D
:1002F800872923004108DC3E860001308700810100
:10030800C201C20ADB2924005308A03E860002303D
:10031800870030300102031CB1295308A03E860033
:10032800023087003A3001020318B1295308A03E71
:1003380086000230870001082200EE0023004108F1
:10034800DC3E86000130870022006E088100013003
:10035800EE006E082300C107C42924005308A03EFC
:1003680086000230870001082200EE006E08230094
:10037800C300C1014108DC3E8600013087008101CD
:10038800C20101302200EE006E082400D307500895
:1003980053020318DB29083023004106031D6A298C
:1003A8002B308931D92181312300C101DC0124009E
:1003B800500803193E2A23004203031D3E2A410820
:1003C80003193E2ADC308F3110278131220067085B
:1003D8002400D200220066082400D10063302300E4
:1003E8004306031D172A24005208803A2200EE0013
:1003F80080306E02031D032A013024005102031CC1
:10040800172A24005208803A2200EE0080306E023B
:10041800031D112A8030240051020318172A2400D2
:1004280051082C0092006D3023004306031D3C2A1E
:1004380024005208803A2200EE0080306E02031D2C
:10044800282A013024005102031C3C2A24005208A7
:10045800803A2200EE0080306E02031D362A80307A
:100468002400510203183C2A240051082C0095004E
:100478002300C10183312823080023004C03031DF6
:10048800512A3D008E1A512A900112141216023078
:100498002100E30063082300CC003D001019121D61
:1004A8005E2AFB302100E30063083D009005893196
:1004B800652182313D008E1C642A2000121108003B
:1004C8001018121C772A8431A324823121001215B6
:1004D8000430E30063082300CC00FE302100E30071
:1004E80063083D009005101A121E7D2A89312621C5
:1004F80082313D00101FA72A121F922A7330200054
:10050800E2000030E3000030E4000030E500013094
:10051800E6000030E7008A3180228231BF302100B6
:10052800E30063083D0090058831B720823123003D
:100538004F080319A12A0130CF024F08031DA72A2B
:100548008E313C2682313D00901A921EAE2A8931A6
:10055800852182313D009018921CC42AFF3020006A
:10056800E2007F30E3000030E4000030E5000130B5
:10057800E6000030E7008A31802282313D00930195
:10058800043023004C020318CC2A20001211080062
:100598003D00921D252B2100E5010430650203185A
:1005A800252B3D00901D252B0F082100E300630833
:1005B8002300EE006E0C2100E300E30C630C0F39FE
:1005C800E40064082300D800F7302100E300630842
:1005D8003D00900523006E19F42A5808B23EF72A08
:1005E80023005808AF3E8600013087000108013912
:1005F8002100E3000130E30601086306FE396306C3
:10060800810023005808031D0D2B8D3125258231CB
:100618001C2B72302000E2000030E300EE30E400D2
:100628000130E5000030E600E7008A31802282319F
:1006380001302100E3006308E50704306502031C6C
:10064800D52A2000121108002100121123004508A4
:100658000319362B450886008701811F362B210098
:10066800121508000330230054060319D401540856
:10067800031D412B210012150800023023005406E7
:10068800031D5E2B2200E001E00A0030E10000308B
:10069800E200E30102308C31332483312200E80088
:1006A80068082300C50003302200E800680823001A
:1006B800D400ED2B5403031DED2B41305502031CD0
:1006C800672B4030692B230055082200E800680892
:1006D800EB006B03FF3A230055072200E800680887
:1006E8002300D500A0302200E80068082300BD00E0
:1006F80022006B08E8006808EA0023005208031982
:10070800A32BC52B23003F08860002308700010871
:100718002200E80023003D088600870122006808BF
:1007280081000130E80068082300BD07013022007D
:10073800E80068082300BF0701302200EA0222000F
:100748006A080319C92B862B23003F08860002304C
:10075800870001082200E80023003D088600870181
:100768002200680881000130E80068082300BD07FE
:1007780001302200E80068082300BF07013022008A
:10078800EA0222006A08031DA82B23005508031D4E
:10079800DA2B403022006B06031DD42B0230D62BF7
:1007A80003302200E80068082300D4002200E0019A
:1007B800E00AA030E1000030E2006B08E8006808B9
:1007C800E30002308C3133242200E9006908230059
:1007D800C500210012150800210012113D009301E7
:1007E800900198010E302200E2009930E100E30107
:1007F800023063020318112C610886006208870022
:1008080081010130E1070030E23D0130E00060087D
:10081800E30702306302031C002C16303D009100F0
:100828009F3097007B3092002200E4010C30640274
:100838000318372C6408E0000130E035FF3E031D43
:10084800212C6035203E860087010030C03F0030F3
:10085800C13FC23FC33F0130E0006008E4070C30ED
:100868006402031C1E2C3D000E1796010E120E1377
:10087800F7302200E00060083D0090052100E90102
:100888002300A201A301A4013D0090193C2C0130D2
:100898002200E00060082300CD0001302200E000C3
:1008A80060082300CE00C901CA01C8012200E40182
:1008B800033064020318802C6408B53E86000130BA
:1008C800870081016408B83E8600013087008101F5
:1008D8006408AF3E86000130870081016408B23E9B
:1008E80086000130870081010130E0006008E407DC
:1008F80003306402031C602C2830E00060082300E9
:10090800B50016303D00980000302000A30050309C
:10091800A2000830A10004302200E0006008200096
:10092800A000A0172300ED010030AE000030AD009C
:100938000030AC000030AB00D001CC010800210031
:1009480012113D009301900198010E30F200993088
:10095800F100F301023073020318C32C71088600FA
:100968007208870081010130F1070030F23D013043
:10097800F0007008F30702307302031CB22C163023
:100988003D0091009F3097007B309200F4010C30BD
:1009980074020318E82C7408F0000130F035FF3EAB
:1009A800031DD22C7035203E860087010030C03FE1
:1009B8000030C13FC23FC33F0130F0007008F40768
:1009C8000C307402031CCF2C3D000E1796010E123A
:1009D8000E13F730F000700890052100E90123009C
:1009E800A201A301A4013D009019ED2C0130F000F3
:1009F80070082300CD000130F0007008CE00C90156
:100A0800CA01C801F4010330740203182B2D7408BD
:100A1800B53E86000130870081017408B83E860023
:100A28000130870081017408AF3E860001308700DD
:100A380081017408B23E86000130870081010130CF
:100A4800F0007008F40703307402031C0B2D2830E3
:100A5800F00070082300B50016303D009800003003
:100A68002000A3005030A2000830A1000430F0009C
:100A78007008A000A0172300ED010030AE00003080
:100A8800AD000030AC000030AB00D001CC01080054
:100A9800ED34853497348534BD3485345434853405
:100AA8000934023443340034023401340034C0348D
:100AB800323409340434003400340134023402344A
:100AC800013400340534243400341034013404343F
:100AD8002434023402340534243406340034013416
:100AE80005342434013400340134073405348134A6
:100AF8000334083400340234093404340134003433
:100B080002340A3400340034003407340534023423
:100B1800023440340034003407340534823402345B
:100B2800403400340034263403346B3400346934E0
:100B380000347434003473340034753400346E3443
:100B48000034653400342D340034643400346534A2
:100B580000346E340034733400346834003469343B
:100B680000342E3400346E34003465340034743468
:100B780000341E340334533400347934003473346D
:100B8800003474340034653400346D340034203457
:100B980000344D3400346F3400346E34003469341A
:100BA8000034743400346F34003472340034123436
:100BB8000134003402340234003400340834D834A8
:100BC80004340A340034003401340134023400346B
:100BD80001340434033409340434230059088600EA
:100BE8008701413FF5007508F200F30173082402FC
:100BF800031D002E720823020318062E2308F20094
:100C08007208F5007508F200F3017208A302730870
:100C1800A43BF401750874020318272E7408583E83
:100C2800860087010108F20020088600013087004D
:100C3800720881000130F2007208A0070130F2004A
:100C48007208F4070E2E2308240403195F2E0830B7
:100C5800F20021006C0A8600870172088100583072
:100C6800F2000030F3006C08023E8600870172082B
:100C7800C03F7308C13F2300590886008701011B44
:100C8800522E4830F20021006C0886008701720855
:100C980081006C0886008701811708000830F2007F
:100CA80021006C0886008701720881006C088600A4
:100CB8008701811708000830F20021006C0A8600BD
:100CC8008701720881005030F2000030F3006C0890
:100CD800023E860087017208C03F7308C13F043096
:100CE800F2006C0886008701720881006C08860093
:100CF80087018117230025082608A2134B08031D26
:100D080008008E313C2608002100E9170E3020002B
:100D1800EA009930E900EB0102306B020318A52EB6
:100D2800690886006A08870081010130E9070030F8
:100D3800EA3D0130E8006808EB0702306B02031C4B
:100D4800942E2030F0000030F1000030F200F30063
:100D58003030F4000030F50088319F2086313D00A6
:100D68000E172000EC0103306C020318CF2E6C081C
:100D7800AF3E86000130870081016C08B23E8600D4
:100D88000130870081010130E8006808EC07033072
:100D98006C02031CBB2EEB30F0000130F100003078
:100DA800F200F3000230F4000030F50088319F2093
:100DB80086313D000E1328302000E8006808230023
:100DC800B50020302000E80068082300D900590841
:100DD8002000E80068082100EC0020005208E80024
:100DE80068082300ED006D08031D012F1030200056
:100DF800E80068082300CC00080000302000E30069
:100E08000130E200ED30E4000130E5000130E60099
:100E18000030E7008A31802220302000E80068088E
:100E28002300CC0008003D000E122100E91B582FBA
:100E38002300A21F2C2F0230F5007508D6004A089F
:100E4800031D282F8C31D0242300CE01CD010800AA
:100E58000830F50021006C0A8600870175088100BA
:100E68005030F5000030F6006C08023E860087011D
:100E78007508C03F7608C13F0C30F5006C08860045
:100E88008701750881006C08860087018117043086
:100E9800F5002300350886008701750881003508AC
:100EA80086008701811708002000D01F6F2F0130AE
:100EB800F50075082300D6004908031D662F8C31FC
:100EC800D02487312300CE01CD014B08031D080033
:100ED8008E313C2608000230F50075082300D60044
:100EE8000830F50021006C0A86008701750881002A
:100EF8005030F5000030F6006C08023E860087018D
:100F08007508C03F7608C13F0430F5006C088600BC
:100F18008701750881006C08860087018117230006
:100F2800CE01CD014B08031D08008E313C26080078
:100F380023003508860087010030011B0130F500C9
:100F48000430F3007308B50608304C06031DBB2FA8
:100F5800200052087F393D00960016080319B62F65
:100F68001030B72F0430F30073082300CC00560369
:100F7800031DF92F5830F3000030F4003508023E05
:100F8800860087017308C03F7408C13F8E31A126CF
:100F98008731023023005B06031DDE2F0430F30087
:100FA80035088600870173088100350886008701A7
:100FB800811708007508031DED2F4830F300350828
:100FC800860087017308810035088600870181172C
:100FD80008000830F300350886008701730881008F
:100FE80035088600870181170800A21FFE2F2508F3
:100FF8002608A213D60108008D31FF2D8E31022E4E
:101008008E313B2E8E31022E8E313B2E8D31E22DCC
:101018008D31EB2D8E31222E8D31F12D8D31EE2D2E
:0C1028008E31052E8E31152E8E313B2EA0
:1010780022000C160800EF30F000700822008C05E2
:101088000800FE0012001E00FE0B46280034640013
:1010980080010131890B4C2800342200E100E00175
:1010A8003A30610203185E2830306102031C5E2862
:1010B800E001E00A600C08008A310A222300E801F6
:1010C8000830FD007D08EA00E9010030E700003043
:1010D800E6002530E5008030E400D1010800F0008A
:1010E8007C28FC3021009900903027009B000800E4
:1010F8007008003A03197528013A03198728033A3A
:1011080003198728872808002200E0009228FC306D
:1011180021009900903027009B00080022006008F9
:10112800003A03198B28013A03199E28033A031938
:101138009E289E2808007108F7007008F600013004
:10114800F4020030F53B740A0319750A0319080004
:101158007608860077088700720881000130F60754
:101168000030F73DA32801302300AB070030AC3D29
:101178000030AD3D0030AE3D4808031D0800013089
:10118800F0007008D0075008031D0800FF30F00079
:101198007008D00008002200E401E501601CD8288E
:1011A8006208E4076308E53D0130E235E30D890B89
:1011B800D9280130E136E00C890BDE28600861048B
:1011C800031DD2286508E1006408E0000800230038
:1011D8004C08031D08003D008E0192011630910055
:1011E8009F3097007B309200210012150B178B1748
:1011F8003D008E1901298E15FC2801302200E000DF
:1012080060082300CC00080059346F34753420344A
:1012180073346134693464343A34203400344234E9
:101228007534663466346534723420346F347634F9
:101238006534723466346C346F34773421340D3449
:101248000A3400343D001215EF302000E800680829
:101258003D0090058E1401302000E8006808230046
:10126800C800D00175302000E2000030E3000030F3
:10127800E4000030E5000030E600E7008A31802213
:101288000800FC00771D4D29F0017C088A314322B3
:101298008931F71C5429F001F00A7C088A3143226D
:1012A8007C08983EF800F9010E30F93D7808FA00FC
:1012B8007908FB007A0886007B0887007708810098
:1012C80008002300C80174302000E2000030E30069
:1012D8000030E4000030E5000030E600E7008A3125
:1012E800802289313D008E101211101D8229FB3099
:1012F8002000E80068083D00900579292300D00106
:1013080008003D00181CA4292300590886008701FD
:1013180080300106031DA229350886008701843024
:101328000106031DA2290C30F00059088600870128
:101338007008810059088600870181173D00181040
:10134800DF30F000700890050800023023005606D0
:10135800031DB1298531F12508002300D601440871
:10136800031DD6290830F60021006C0A8600870183
:10137800760881005030F6000030F7006C08023E15
:10138800860087017608C03F7708C13F0C30F60019
:101398006C0886008701760881006C088600870142
:1013A800811708002300C40108002200E200210080
:1013B8001211230054080319E4292100121508000A
:1013C8002200E3016208E0006008E1000130E0006B
:1013D8006008E307630A0319F929610886000230E7
:1013E8008700E10A0108031DEA296208E000600895
:1013F8002300BF0022006308E00060082300D50036
:10140800D201D401D40A21001215080000302300AB
:10141800E7000030E6004B30E5000030E400E8016A
:10142800E90108302000E00060082300EA00D30149
:101438001A302000E0006008F700013089314521AA
:101448008A311E302000E0006008F7000230893140
:1014580045218A31F0012030F1000130F20040309E
:101468002000E0006008F30002308B314F23200099
:10147800E10061082300C600C501D4010800F50099
:101488002030F1007108F6007008F1000130F135E4
:10149800890B4B2A7508F2000130F235FF3E031D17
:1014A800512A72357107F3000130F335FF3E031DF1
:1014B800592A7335F4007408F60776088600870100
:1014C80081137008031D6D2A7608F1007508B83E6F
:1014D800712A7608F1007508B53E8600013087004C
:1014E8007108810076088600870101137608043E9A
:1014F8008600870101170800982A8B319B23080072
:101508008B319B238A3101308831732008008B315D
:101518009B238A310230883173200800883160208B
:1015280008008D317A25080020006308003A031965
:10153800A12A7F3A0319BB2AC02A6208013A031973
:10154800922A033A0319C02A013A0319952A063A3E
:101558000319C02A773A0319C02A013A0319812AC4
:10156800073A03198B2A013A0319842AC02A620808
:10157800FF3A0319C02AC02A0800003088318820A1
:101588008A31EF302300EF006F0821008C0522001C
:101598000C16033020009C007F309B009A019110AC
:1015A8001C15C0302C0093003E3092009101DF30B2
:1015B8002300EF006F0821008E05C0302C00960034
:1015C800203095009401F7302300EF006F082100C8
:1015D8008E0522009D0123008E018C018331F023AA
:1015E8008A318831EB208A31203023004C02031CD9
:1015F800F82A3D008E18F82A813156218A31F82AB6
:101608002000D801D901362B2100E9172300470310
:10161800031D422B2000D814422B2100E917422B2E
:101628002100E9172000D41B1D2B54080F39B83EA0
:10163800202B54080F39B53E860001308700010879
:10164800F0007008F100710886008701811F422BA5
:10165800710886008701011D422B0130F0007008D7
:10166800D800422B50081F39003A0319082B013AB9
:101678000319112B033A0319142B422B2100E91FDC
:1016880008005830E7000030E80069140230F00024
:101698007008EA000800F60070080319562B76084F
:1016A800B53E582B7608B83E860001308700010801
:1016B800F4007408F7007708031D642B0030080055
:1016C800FF307105F4007F307205F5007708023E9F
:1016D800860087017408C03F7508C13F7308F4008D
:1016E800770A86008701740881004030F400770883
:1016F80086008701740881057708860087018115AF
:10170800770886008701811770080319902B043029
:10171800F4007608B53E942B0430F4007608B83E01
:1017280086000130870074088106770808003D00AC
:101738008E1CDB2B043088313F20080023003B033C
:101748003C04031DAC2B043088313C208B31E12B49
:101758004B3023003B063C04031DB72B0430883173
:101768003F208B31E12B003023003C029730D42BF3
:101778003B033C04031DC52B043088313C208B31CE
:10178800E12B323023003B063C04031DD02B0430F0
:1017980088313F208B31E12B033023003C02B730E6
:1017A80003193B02031CE12BBB01BC01E12B230005
:1017B8004C08203A0319A22BBC2B01302300BB078D
:1017C8000030BC3D08002300DB01CB01C901CA0180
:1017D800C401D6017F302000EF00230035088600C1
:1017E800870120006F0881050430EF006F0823008F
:1017F800B5067F302000EF002300350886008701FA
:1018080020006F0881050430EF006F082300B5063B
:101818007F302000EF0021006C088600870120003F
:101828006F0881052100E901EA01EB012300A2010B
:10183800A301A4018D31DA258B3100302000E300AB
:101848000330E2000030E4000030E5000030E6003C
:10185800E7008A3180228B31873117270800220060
:10186800E600600803193B2C6608B53E3D2C660867
:10187800B83E8600013087000108E4006408E700EC
:101888006708031D492C00300800FF306105E4009B
:101898007F306205E5006708023E8600870164081C
:1018A800C03F6508C13F6308E400670A86008701F6
:1018B800640881004030E4006708860087016408F6
:1018C80081056708860087018115670886008701FA
:1018D800811760080319752C0430E4006608B53ECA
:1018E800792C0430E4006608B83E86000130870091
:1018F80064088106670808002200EB002300D30172
:10190800460803198C2C460886008701811BCE2CBB
:10191800460A8600870122006808010203189B2CEA
:101928002300460886008701413F2200E800230083
:10193800D30122006808230053020318BC2C530863
:10194800203E86000130870001082200E9002300BC
:10195800530822006B07EA006A08860002308700F5
:10196800690881000130E90069082300D3079D2C2C
:101978002200E0012030E1000130E2004030E900BF
:101988006908E30002308C3133242200EA006A0837
:101998002300C600530808002300C901CA01023009
:1019A8005606031DF72C0830F30021006C0A860048
:1019B8008701730881005830F3000030F4006C0888
:1019C800023E860087017308C03F7408C13F483053
:1019D800F3006C0886008701730881006C08860094
:1019E80087018117080021006B0820005702031D9A
:1019F800012D21006A082000560203180A2D5708F5
:101A08002100EB00200056082100EA008E31A126B3
:101A18005830F3000030F40023003508023E8600F9
:101A280087017308C03F7408C13F4830F300350888
:101A380086008701730881003508860087018117B1
:101A480008002D302100E00060082300CF006E0858
:101A5800FD39031D6E2D6E363F392100E00001303F
:101A6800E035FF3E031D342D6035203EE10061085E
:101A78002300D90059082100E0006008EC00043078
:101A8800E0006008EC062300590886008701010C75
:101A9800890C0F390D3A031D6B2D503086008701D4
:101AA80023005908023E84008501003F2100E00020
:101AB800013FE10060088400610885000830E20009
:101AC80012001E00E20B642D8B31E72308008931D8
:101AD800A9210800FD3023006E052100E000043034
:101AE8006006031D080087319C2708002000500865
:101AF8001F39013A031D0800500E890C0339013AB9
:101B0800031D080054080319C72D5403031D0800BA
:101B1800C72D48302100E7000230E8000030EB0014
:101B28000830EA006914E917080048302100E70086
:101B38000230E800E9170800200057082300A40035
:101B4800200056082300A300E430F0007008A0002D
:101B5800A501A601A2170800E4302100E700013022
:101B6800E8000030EB000730EA00C130F0007008F0
:101B7800E900080020005208F00070082300D70090
:101B88002100E917080020005108003A03198D2D9B
:101B9800013A0319992D213A0319A02D013A031985
:101BA800B02D033A0319BE2DD92D08002000500E80
:101BB800890C0339003A031D0800302E2100E9176B
:101BC80008302000EE006E082300CC0008008F319A
:101BD80081270800863188260800ED302100E700BB
:101BE8000130E800691401302000EE006E08210081
:101BF800EA00E91708008B310423080080314A20E5
:101C0800080020005408EB3E2100E7000130E800FE
:101C1800691401302000EE006E082100EA00E9177F
:101C280008002100E91720005208EE005408EB3E96
:101C38008600013087006E08810008000030E3004C
:101C48000230E2000030E4000030E5000030E60039
:101C5800E7008A31802208002000510884000D30F6
:101C680004020318080088310435003E8200080089
:101C780023004D08031D08000130F0007008CD0056
:101C88004E08031D08000130F0007008CE00023035
:101C98005606031D5F2E350A8600870181014830EC
:101CA800F000350886008701700881003508860035
:101CB8008701811708005603031D0800C401083076
:101CC800F000590A86008701700881005030F00042
:101CD8000030F1005908023E860087017008C03FB5
:101CE8007108C13F0430F000590886008701700868
:101CF800810059088600870181170130F0007008BB
:101D0800C4000830F00021006C0A860087017008C2
:101D180081005030F0000030F1006C08023E86006F
:101D280087017008C03F7108C13F8030F0006C081F
:101D3800860087017008810008000830F0007008EC
:101D4800F200003021006B02083003196A02031800
:101D5800BE2E6A08F0007008F20023005B08031D1D
:101D6800B72E0130BB2E5B03031DBE2E0230F000E0
:101D78007008DB007208F000F10170082100EA0227
:101D88007108EB3B7208F0002300350A86008701D2
:101D9800700881005830F0007008DA002100691CD2
:101DA800EF2E0C2F210067088400680885000008C2
:101DB800F00023005A08860087017008810001306E
:101DC8002100E7070030E83D0130F00070082300EB
:101DD800DA070130F202720803190800D62E210032
:101DE80067088400680885000008F00023005A0886
:101DF800860087017008810001302100E707003064
:101E0800E83D0130F00070082300DA070130F202E3
:101E1800720803190800F32E2200ED006D088600F1
:101E28000130870020300106031D1F2F0130E80014
:101E38006808ED07122F6D08860001308700093009
:101E4800010603191A2FEB01EC01EA016D0886005F
:101E5800013087002D300106031D372F0130E800BF
:101E68006808EA073F2F6D088600013087002B308D
:101E78000106031D432F0130E8006808ED076D08CF
:101E88008600013087000108883151208F31031CFA
:101E98006C2F22006C08E1006B08E0000A30E200B9
:101EA8000030E3008831CF208F3122006D08860092
:101EB8000130870001086007E80061080318610A1B
:101EC800E9006808D03EEB00FF30693DEC003F2F89
:101ED80022006A0803197C2F6B09E8006C09E900E5
:101EE800E80A0319E90A6808E6006908E700080033
:101EF8006C08E7006B08E6000800803020005006F8
:101F0800031D0800C030F00070082100E900F32F1D
:101F1800DB302100E7008530E8000030EB001230AC
:101F2800EA00080020005208031DC92F5208F000DB
:101F3800F101F035F10D5230700784008530713DA4
:101F48008500003F2100E700013FE8006808F10034
:101F58006708F00002307007840071080318710ADE
:101F680085000008F2007208EA006808F1006708B6
:101F7800F00003307007840071080318710A8500A7
:101F88000008F2007208EB0008002100E9010800CF
:101F98000330200052020318ED2F5208F000F1011F
:101FA800F035F10D4C30700784008530713D8500A7
:101FB800003F2100E700013FE80067088400680847
:101FC80085000008F000F1017008EA007108EB00D4
:101FD80008002100E90108002100E90108002000AB
:101FE8005308013A03198C2F033A0319962F013A23
:081FF8000319CC2FF02F0800A3
:020000040001F9
:04000E00A4CFCFDFCD
:00000001FF
